S00E0000526564426F742E73726563D6
S11300000C943B000C9458000C9458000C94580029
S11300100C9458000C9458000C9458000C948A02C8
S11300200C9495020C9458000C9458000C945304AE
S11300300C9458000C9458000C9474020C947F0295
S11300400C9458000C9458000C9458000C945800CC
S11300500C9458000C9458000C9458000C945800BC
S11300600C9458000C945800E300E700EB00EF00F8
S1130070F300F700FB0011241FBECFEFD8E0DEBF72
S1130080CDBF11E0A0E0B1E0E4ECF0E102C00590E6
S11300900D92AE31B107D9F721E0AEE1B1E001C074
S11300A01D92A33EB207E1F70E9485010C946008FB
S11300B00C94000010927C00EAE7F0E087E0808373
S11300C08081806880830895806480937C00089593
S11300D0EAE7F0E0808180648083808186FDFDCF43
S11300E0809178009091790008950E946800BC0185
S11300F080E090E00E94740620E030E040EA5BE398
S11301000E942B0708954F925F926F927F928F9275
S11301109F92AF92BF92CF92DF92EF92FF92CF93D2
S1130120DF93C0902201D0902301E0902401F0904D
S11301302501C0921E01D0921F01E0922001F0928D
S11301402101CDE3D1E08C809D80AE80BF80A501EC
S11301509401688579858A859B850E94D3052B0146
S11301603C01A5019401688179818A819B810E9467
S1130170D3059B01AC01C301B2010E94D305609376
S1130180220170932301809324019093250180918F
S11301904901E82FE7708E2F90E0FC013197E7309A
S11301A0F10520F4EC5CFF4F0C949807C0922201F7
S11301B0D0922301E0922401F0922501809127013D
S11301C08093260123C083E0809326011FC082E030
S11301D0809326011BC083E08093260117C084E02E
S11301E08093260113C082E0809326010FC084E02F
S11301F0809326010BC0C0922201D0922301E09289
S11302002401F092250182E080932601C09022010E
S1130210D0902301E0902401F090250120911E014B
S113022030911F014091200150912101C701B60175
S11302300E94D30520E030E040E05FE30E942B07FA
S1130240A70196010E94D405209100012330E9F012
S113025028F4213041F0223069F039C0243031F1E2
S1130260253089F134C081E00E94610282E08093EC
S1130270260130C02AE939E949E75FE360E070E02C
S113028080E89FE30E94C90125C09B01AC016AE993
S113029079E989E79FE30E94D3059B01AC0160E003
S11302A070E080E89FE30E94C90114C020E030E0C0
S11302B040E85FE30E94D4052AE939E949E75FE3AE
S11302C00E94C90107C080E00E94610203C081E06E
S11302D0809326018091000180932701809126015B
S11302E080930001DF91CF91FF90EF90DF90CF904A
S11302F0BF90AF909F908F907F906F905F904F9042
S11303000895259A249A2C9A089578940E941B03A0
S11303100E9481010E94AF010E9492040E945A002F
S1130320EDEDF1E081E091E0958384839383828312
S11303309183808381E191E00E94F90705E010E058
S113034020E030E040E050E060E070E083E890E0DE
S11303500E942A030E94A0020E945603FBCF279A00
S11303608AB1846F8AB923E024BD8BE085BD99EFFF
S113037097BD18BC86E080936E002093B0002CE0FB
S11303802093B1009093B3001092B4008093700056
S113039008958F929F92AF92BF92CF92DF92EF9285
S11303A0FF924B015C0169017A0120E030E040E8F2
S11303B05FE30E942607882364F087B58F5F88BDBA
S11303C00F2E812C912CF0E8AF2EFFE3BF2EF02DE1
S11303D025C020E030E0A901C501B4010E94400617
S11303E018162CF018BC812C912C540117C067B539
S11303F070E06F5F7F4F072E000C880B990B0E94F3
S11304007606A50194010E942B0720E030E040E825
S11304105FE30E94D3050E94450668BD20E030E0FA
S113042040E85FE3C701B6010E942607882374F001
S11304308091B3008F5F8093B4000F2EC12CD12C18
S1130440F0E8EF2EFFE3FF2EF02D28C020E030E08F
S1130450A901C701B6010E944006181634F0109293
S1130460B400C12CD12C760119C06091B30070E0A6
S11304706F5F7F4F072E000C880B990B0E94760646
S1130480A70196010E942B0720E030E040E85FE3DB
S11304900E94D3050E9445066093B400E8E2F1E0AF
S11304A080829182A282B382C482D582E682F7825C
S11304B0FF90EF90DF90CF90BF90AF909F908F9080
S11304C00895813021F068F0823031F008955A980F
S11304D05C9A289A5F9808955A9A5C985F9A28982B
S11304E008951BB8289808951F920F920FB60F9283
S11304F011245D9A0F900FBE0F901F9018951F92B4
S11305000F920FB60F9211245D980F900FBE0F90AB
S11305101F9018951F920F920FB60F9211245E9A96
S11305200F900FBE0F901F9018951F920F920FB649
S11305300F9211245E980F900FBE0F901F90189584
S1130540CF92DF92EF92FF92CF93DF9380E00E94ED
S113055064000E947500CDE3D1E0688379838A83C7
S11305609B8381E00E9464000E9475006C837D83FC
S11305708E839F8382E00E9464000E9475006B0159
S11305807C01688779878A879B878DE0FE01A0E3D9
S1130590B1E001900D928A95E1F726E636E646E948
S11305A050E4688179818A819B810E94260788238F
S11305B034F0E9E4F1E080818460808305C0E9E4FB
S11305C0F1E080818B7F808326E636E646E950E4BD
S11305D060914101709142018091430190914401E5
S11305E00E942607882334F0E9E4F1E080818260E8
S11305F0808305C0E9E4F1E080818D7F808326E675
S113060036E646E950E4C701B6010E94260788236E
S113061034F0E9E4F1E080818160808305C0E9E49D
S1130620F1E080818E7F8083DF91CF91FF90EF9006
S1130630DF90CF900895109280008BE0809381002A
S113064089EF90E0909389008093880082E0809302
S11306506F0008950F931F93E0910F01F091100123
S1130660DF01A255B140D997DCF4928B818B82E0F3
S1130670808B108211821282138214821582168258
S113068017820087118722873387448755876687B7
S11306907787CF0143969093100180930F0102C096
S11306A0E0E0F0E0CF011F910F9108952F923F9267
S11306B04F925F926F927F928F929F92AF92BF926E
S11306C0CF92DF92EF92FF920F931F93CF93DF931A
S11306D000D000D000D0CDB7DEB720904A013090D2
S11306E04B0140904C0150904D0180914E01898303
S11306F090914F019A83A0915001AB83B091510125
S1130700BC83E2E5F1E0FE83ED830F2EFBE86F2E60
S1130710F1E07F2EF02D8D809E80D40150968C9137
S11307205097823009F073C0222D332D442D552D5E
S113073069817A818B819C81AC901196BC901197D0
S11307401296CC9012971396DC9013971496EC9013
S113075014971596FC90159716960C911697179664
S11307601C9117970E949E072C9311963C93119706
S113077012964C93129713965C93139714966C935A
S1130780149715967C93159716968C93169717962F
S11307909C9317971896AC9018971996BC90199734
S11307A01A96CC901A971B96DC901B971C96EC908B
S11307B01C971D96FC901D971E960C911E971F96D4
S11307C01C911F970E94BC0710F15196ED91FC916A
S11307D05297309709F00995F401208131814281C3
S11307E053816481758186819781A084B184C28498
S11307F0D384E484F584068517850E94B307208397
S113080031834283538364837583868397838D8185
S11308109E8143969E838D838615970509F07BCF31
S113082020914A0130914B0140914C0150914D016E
S113083060914E0170914F0180915001909151014E
S1130840A22CB32CC42CD52CE980FA800B811C81FA
S11308500E94B30720934A0130934B0140934C010B
S113086050934D0160934E0170934F01809350015A
S11308709093510126960FB6F894DEBF0FBECDBFFC
S1130880DF91CF911F910F91FF90EF90DF90CF9068
S1130890BF90AF909F908F907F906F905F904F909C
S11308A03F902F9008951F920F920FB60F9211242C
S11308B02F933F934F935F936F937F938F939F9364
S11308C0AF9320914A0130914B0140914C015091DA
S11308D04D0160914E0170914F01809150019091B2
S11308E05101A1E00E94A70720934A0130934B01D4
S11308F040934C0150934D0160934E0170934F010E
S11309008093500190935101AF919F918F917F916A
S11309106F915F914F913F912F910F900FBE0F9068
S11309201F90189587E68093C40088E18093C100E6
S11309300895CF93C82F873069F42091E101309155
S1130940E20147E050E061E070E086E191E00E945E
S1130950C5070CC08A3019F48DE00E949904E0ECBC
S1130960F0E0808185FFFDCFC093C60080E090E079
S1130970CF9108956F927F928F929F92AF92BF9280
S1130980CF92DF92EF92FF920F931F93CF93DF9357
S11309902091DB013091DC01232B09F0DAC08C01BA
S11309A00F2EFBE88F2EF1E09F2EF02DC0ECD0E04F
S11309B00F2EF6ECCF2ED12CF02D54010F2EFAE889
S11309C06F2EF1E07F2EF02D88818823ECF788814B
S11309D084FDD2C0888183FDD2C0F60180818D3030
S11309E011F08A3069F48AE0F4018083B8010E942E
S11309F099048BE891E09093DC018093DB01A9C01A
S1130A00893039F090EE980F9F3520F0803AB8F095
S1130A1001C080E2FAED8F16F1E09F0629F4B801D7
S1130A2087E00E949904D0CF74019FEFE91AF90A74
S1130A30F4018083B8010E9499044701C5CF823133
S1130A40D1F130F4833009F49DC08830E9F0BCCF93
S1130A50873129F08F37C1F0853179F0B5CFFBE8C4
S1130A608F16F1E09F0609F008F4AECFF401319738
S1130A708081803209F052C0A7CF8BE8881681E0CC
S1130A80980609F098F5A0CF9BE8891691E099069D
S1130A9009F008F499CFB80188E00E949904B801DC
S1130AA080E20E949904B80188E00E949904E1E080
S1130AB08E1A910889CFB8018DE00E949904FBE851
S1130AC08F16F1E09F0609F008F47ECF0F2EFBE8A5
S1130AD0EF2EF1E0FF2EF02DB801F70181917F0197
S1130AE00E9499048E149F04B9F76ECFB80188E070
S1130AF00E949904B80180E20E949904B80188E038
S1130B000E949904F1E08F1A91088BE8881681E01D
S1130B10980661F7F30131964F0156CF7401F1E065
S1130B20EF1AF108B80188E00E949904B80180E244
S1130B300E949904B80188E00E9499044701EA14CC
S1130B40FB0409F441CFF70182917F01803251F710
S1130B503BCFE091DB01F091DC01CF010196909352
S1130B60DC018093DB0180818A3021F41092DC0166
S1130B701092DB0190E008C08EEF9FEF05C08FEF6D
S1130B809FEF02C08FEF9FEFDF91CF911F910F91E5
S1130B90FF90EF90DF90CF90BF90AF909F908F9099
S1130BA07F906F9008955058BB27AA270E94EB05A9
S1130BB00C94EC060E94DE0638F00E94E50620F054
S1130BC039F49F3F19F426F40C94DB060EF4E095F7
S1130BD0E7FB0C94D506E92F0E94FD0658F3BA17DB
S1130BE0620773078407950720F079F4A6F50C943F
S1130BF01F070EF4E0950B2EBA2FA02D0B01B9019F
S1130C0090010C01CA01A0011124FF27591B99F07E
S1130C10593F50F4503E68F11A16F040A22F232F8A
S1130C20342F4427585FF3CF469537952795A795DA
S1130C30F0405395C9F77EF41F16BA0B620B730B81
S1130C40840BBAF09150A1F0FF0FBB1F661F771FF2
S1130C50881FC2F70EC0BA0F621F731F841F48F4A7
S1130C60879577956795B795F7959E3F08F0B0CF30
S1130C709395880F08F09927EE0F97958795089517
S1130C800E94B10608F481E008950E94050788F0E7
S1130C909F5798F0B92F9927B751B0F0E1F0660F3C
S1130CA0771F881F991F1AF0BA95C9F714C0B1307D
S1130CB091F00E941F07B1E008950C941F07672F5D
S1130CC0782F8827B85F39F0B93FCCF386957795AC
S1130CD06795B395D9F73EF4909580957095619595
S1130CE07F4F8F4F9F4F0895E89409C097FB3EF4C0
S1130CF090958095709561957F4F8F4F9F4F992365
S1130D00A9F0F92F96E9BB279395F69587957795E2
S1130D106795B795F111F8CFFAF4BB0F11F460FFA2
S1130D201BC06F5F7F4F8F4F9F4F16C0882311F0FA
S1130D3096E911C0772321F09EE8872F762F05C00E
S1130D40662371F096E8862F70E060E02AF09A95A9
S1130D50660F771F881FDAF7880F9695879597F99E
S1130D600895990F0008550FAA0BE0E8FEEF161638
S1130D701706E807F907C0F012161306E407F5078B
S1130D8098F0621B730B840B950B39F40A2661F0FF
S1130D90232B242B252B21F408950A2609F4A140A2
S1130DA0A6958FEF811D811D089597F99F6780E8AF
S1130DB070E060E008959FEF80EC089500240A94A9
S1130DC01616170618060906089500240A94121622
S1130DD01306140605060895092E0394000C11F455
S1130DE0882352F0BB0F40F4BF2B11F460FF04C002
S1130DF06F5F7F4F8F4F9F4F089557FD9058440F5B
S1130E00551F59F05F3F71F04795880F97FB991F65
S1130E1061F09F3F79F08795089512161306140622
S1130E20551FF2CF4695F1DF08C0161617061806AF
S1130E30991FF1CF86957105610508940895E8948A
S1130E40BB2766277727CB0197F908950E94B1063F
S1130E5008F48FEF08950E943E070C94EC060E945C
S1130E60DE0638F00E94E50620F0952311F00C947C
S1130E70D5060C94DB0611240C9420070E94FD0671
S1130E8070F3959FC1F3950F50E0551F629FF001D9
S1130E90729FBB27F00DB11D639FAA27F00DB11DF2
S1130EA0AA1F649F6627B00DA11D661F829F22277B
S1130EB0B00DA11D621F739FB00DA11D621F839F02
S1130EC0A00D611D221F749F3327A00D611D231FD8
S1130ED0849F600D211D822F762F6A2F11249F5726
S1130EE050409AF0F1F088234AF0EE0FFF1FBB1F29
S1130EF0661F771F881F91505040A9F79E3F5105E8
S1130F0080F00C94D5060C9420075F3FE4F3983EE0
S1130F10D4F3869577956795B795F795E7959F5F91
S1130F20C1F7FE2B880F911D9695879597F9089523
S1130F30EE0FFF1F0590F491E02D09942A0D3B1D3F
S1130F404C1D5D1D6E1D7F1D801F911F0895002483
S1130F50A7FD00942A0F301D401D501D601D701DFB
S1130F60801D901D08952A193B094C095D096E09DD
S1130F707F09800B910B08952A153B054C055D05EF
S1130F806E057F05800791070895A0E0B0E0EBECC3
S1130F90F7E00C942F085B014A017901D9011396FB
S1130FA02C9121FF1DC0C0E0D0E0C815D905D9F0AF
S1130FB08C016C01CA0CDB1CC8010C151D0571F0F9
S1130FC00F5F1F4FD7011896ED91FC911997B70148
S1130FD0DC018C910995892B79F305C02196E5CF25
S1130FE080E090E001C0CE01CDB7DEB7ECE00C9418
S1130FF04B080F931F93CF93DF93E091DF01F091A0
S1131000E001238121FF1BC08C01D0E0C0E0F80186
S113101081918F016091DF017091E001DB011896ED
S1131020ED91FC911997882331F00995892B79F377
S1131030DFEFCFEFECCF8AE00995892B19F08FEF22
S11310409FEF02C08D2F9C2FDF91CF911F910F91A5
S113105008952F923F924F925F926F927F928F9258
S11310609F92AF92BF92CF92DF92EF92FF920F9333
S11310701F93CF93DF93CDB7DEB7CA1BDB0B0FB63D
S1131080F894DEBF0FBECDBF09942A8839884888FA
S11310905F846E847D848C849B84AA84B984C88490
S11310A0DF80EE80FD800C811B81AA81B981CE0F87
S11310B0D11D0FB6F894DEBF0FBECDBFED0108956C
S10710C0F894FFCFCE
S11310C40100000003000000009904BA0400005267
S11110D4011B5B324A002A72696E672A0A0009
S9030000FC
