S00F0000526564426F74322E73726563A3
S11300000C94B5000C94D2000C94D2000C94D20041
S11300100C94D2000C94D2000C94D2000C94CC0317
S11300200C94D7030C94D2000C94D2000C941305B6
S11300300C94D2000C94D2000C94B6030C94C1031B
S11300400C94D2000C94D2000C94D2000C94D200E4
S11300500C94D2000C94D2000C94D2000C94D200D4
S11300600C94D2000C94D2006E616E00696E66002E
S113007000407A10F35A00A0724E18090010A5D45B
S1130080E80000E87648170000E40B54020000CAB8
S11300909A3B000000E1F5050000809698000000FE
S11300A040420F000000A08601000000102700005D
S11300B00000E803000000006400000000000A00E3
S11300C0000000000100000000002C76D888DC67E6
S11300D04F0823DFC1DFAE59E1B1B796E5E3E4533E
S11300E0C63AE651997696E8E6C28426EB898C9B5B
S11300F062ED407C6FFCEFBC9C9F40F2BAA56FA5FB
S1130100F490055A2AF75C936B6CF9676DC11BFC7C
S1130110E0E40D47FEF520E6B500D0ED902E030097
S1130120943577050080841E080000204E0A0000E4
S113013000C80C333333330F986E12831141EF8DA3
S11301402114893BE65516CFFEE6DB18D1844B38E3
S11301501BF77C1D901DA4BBE424203284725E2214
S11301608100C9F124ECA1E53D2711241FBECFEF86
S1130170D8E0DEBFCDBF12E0A0E0B1E0E6E8FCE1EC
S113018002C005900D92AC32B107D9F722E0ACE27F
S1130190B2E001C01D92A23EB207E1F70E949F02A5
S11301A00C94410E0C940000EAE7F0E083E08083B5
S11301B08081806880830895806480937C000895A2
S11301C0EAE7F0E0808180648083808186FDFDCF52
S11301D0809178009091790008950E94E000BC011C
S11301E080E090E00E94490720E030E040EA5BE3D1
S11301F00E94000808958EE091E00E94B30D21E072
S113020030E045E352E060E082E50E945A028093C8
S11302103402882329F080E291E00E94B30D12C0D9
S113022082E391E00E94B30D809135021F928F9377
S113023080E491E09F938F930E949D0D0F900F9007
S11302400F900F9080913402089588E080933502D6
S113025021E030E045E352E06DE382E50E942802AC
S1130260089526E030E04EE252E064E182E50E9427
S11302705A0226E030E04EE252E061E682E50E9456
S11302802802089522E030E04CE252E06AE182E57F
S11302900E945A02ECE2F2E0618170E0762F662758
S11302A08081682B072E000C880B990B0E944B074A
S11302B020E030E040E85DE30E9400080895CF921A
S11302C0DF92EF92FF9280913E0290913F02A091C3
S11302D04002B091410280933A0290933B02A09372
S11302E03C02B0933D020E94420160933E0270932F
S11302F03F02809340029093410220913A02309150
S11303003B0240913C0250913D020E94A1066B01C8
S11303107C010E9413079B01772324F422273327AF
S1130320261B370B253B31054CF4C0923602D09284
S11303303702E0923802F092390208C01092360275
S1130340109237021092380210923902209136022C
S113035030913702409138025091390260E070E0E8
S113036080EE9FE30E94A1066093420270934302D1
S113037080934402909345022DEC3CEC4CEC5DE3FD
S11303800E9400089B01AC016AE979E989E79FE3CF
S11303900E94A1069B01AC0160E070E080E89FE34D
S11303A00E940903FF90EF90DF90CF9008958CE0B6
S11303B08093B8000895ECEBF0E0108294EA908307
S11303C090819923ECF79091B900987F9830A1F42B
S11303D08093BB0084E88093BC00ECEBF0E0808168
S11303E08823ECF79091B900987F983139F081E037
S11303F0903429F480E0089581E0089580E0089520
S11304008093BB0084E88093BC00ECEBF0E0808137
S11304108823ECF79091B900987F81E0983209F431
S113042080E0089584EC8093BC00ECEBF0E08081E4
S11304308823ECF78091BB00089584E88093BC0086
S1130440ECEBF0E080818823ECF78091BB00089509
S1130450CF92DF92FF920F931F93CF93DF93C62F18
S11304606A0189010E94DB01F82E811115C08C2FCD
S11304700E9400020115110559F0E6010C0D1D1D25
S113048089910E94000281110AC0C017D107C1F7E7
S113049084E98093BC0005C0FF24F39402C0FF24C8
S11304A0F3948F2DDF91CF911F910F91FF90DF90E7
S11304B0CF900895AF92BF92DF92EF92FF920F9385
S11304C01F93CF93DF93182F062F5A01E9010E943F
S11304D0DB01811122C0802F0E940002812F8160E4
S11304E00E94DB01D82E81111BC08E01015011091D
S11304F051F0E5017501E00EF11E0E94120289938C
S1130500EC16FD06D1F7E501C00FD11F0E941D02B4
S1130510888384E98093BC0005C0DD24D39402C0A1
S1130520DD24D3948D2DDF91CF911F910F91FF90F6
S1130530EF90DF90BF90AF900895259A0895EF92C1
S1130540FF920F931F930E945D040E949D020E94DC
S1130550EF020E948C060E94D4000E94D701789476
S11305600E94FB00811130C02FEF89EF90E02150F1
S113057080409040E1F700C000000E9425012FEF69
S113058089EF90E0215080409040E1F700C00000E6
S11305900E9431010F2EFFE5EF2EF1E0FF2EF02D2A
S11305A00AE010E020E030E040E050E060E070E07D
S11305B086E492E00E946C0481E00E94A1030E9400
S11305C0E2030E94A204FBCF81E192E00E94B30DFA
S11305D081E090E01F910F91FF90EF900895279A8A
S11305E08AB1846F8AB923E024BD8BE085BD99EF7D
S11305F097BD18BC86E080936E002093B0002CE079
S11306002093B1009093B3001092B40080937000D3
S113061008958F929F92AF92BF92CF92DF92EF9202
S1130620FF924B015C0169017A0120E030E040E86F
S11306305FE30E94FB07882364F087B58F5F88BD62
S11306400F2E812C912CF0E8AF2EFFE3BF2EF02D5E
S113065025C020E030E0A901C501B4010E940E07C5
S113066018162CF018BC812C912C540117C067B5B6
S113067070E06F5F7F4F072E000C880B990B0E9470
S11306804B07A50194010E94000820E030E040E8F7
S11306905FE30E94A1060E941A0768BD20E030E0D3
S11306A040E85FE3C701B6010E94FB07882374F0AA
S11306B08091B3008F5F8093B4000F2EC12CD12C96
S11306C0F0E8EF2EFFE3FF2EF02D28C020E030E00D
S11306D0A901C701B6010E940E07181634F0109242
S11306E0B400C12CD12C760119C06091B30070E024
S11306F06F5F7F4F072E000C880B990B0E944B07EE
S1130700A70196010E94000820E030E040E85FE382
S11307100E94A1060E941A076093B400EAE5F2E081
S113072080829182A282B382C482D582E682F782D9
S1130730FF90EF90DF90CF90BF90AF909F908F90FD
S11307400895813021F068F0823031F008955A988C
S11307505C9A289A5F9808955A9A5C985F9A2898A8
S113076008958BB18B768BB9289808951F920F92B8
S11307700FB60F9211245D9A0F900FBE0F901F9029
S113078018951F920F920FB60F9211245D980F9037
S11307900FBE0F901F9018951F920F920FB60F92D5
S11307A011245E9A0F900FBE0F901F9018951F9200
S11307B00F920FB60F9211245E980F900FBE0F90F8
S11307C01F901895CF92DF92EF92FF92CF93DF9311
S11307D080E00E94DC000E94ED00CFE6D2E0688356
S11307E079838A839B8381E00E94DC000E94ED0070
S11307F06C837D838E839F8382E00E94DC000E9451
S1130800ED006B017C01688779878A879B878DE07F
S1130810FE01A2E6B2E001900D928A95E1F726E688
S113082036E646E950E4688179818A819B810E9499
S1130830FB07882334F0EBE7F2E080818460808357
S113084005C0EBE7F2E080818B7F808326E636E605
S113085046E950E4609173027091740280917502CC
S1130860909176020E94FB07882334F0EBE7F2E0D4
S113087080818260808305C0EBE7F2E080818D7F18
S1130880808326E636E646E950E4C701B6010E94B5
S1130890FB07882334F0EBE7F2E0808181608083FA
S11308A005C0EBE7F2E080818E7F8083DF91CF91FA
S11308B0FF90EF90DF90CF900895109280008BE02E
S11308C08093810089EF90E0909389008093880061
S11308D082E080936F000895EF92FF920F931F932D
S11308E0FC018091880290918902892B21F4F09374
S11308F08902E0938802F18AE08A108211821282CE
S11309001382148215821682178200871187228728
S113091033874487558766877787138A128AA0911D
S11309208602B0918702109721F05396FC93EE93C0
S11309305297F0938702E09386021F910F91FF90E4
S1130940EF9008956F927F928F929F92AF92BF9291
S1130950CF92DF92EF92FF920F931F93CF93DF9387
S1130960E0918802F0918902F0937D02E0937C0289
S1130970309709F449C070907E0280907F02909075
S11309808002D0918102C0918202B0918302A09131
S1130990840260908502272D382D492D5D2F6C2F00
S11309A07B2F8A2F962DA080B180C280D380E480D3
S11309B0F580068117810E942D0CA084B184C28425
S11309C0D384E484F584068517850E94360C70F080
S11309D0708281829282D383C483B583A683678223
S11309E00088F189E02D309709F00995E0917C02A7
S11309F0F0917D020288F389E02DF0937D02E0936B
S1130A007C02309709F0B7CFDF91CF911F910F91FE
S1130A10FF90EF90DF90CF90BF90AF909F908F901A
S1130A207F906F9008951F920F920FB60F9211242A
S1130A302F933F934F935F936F937F938F939F93E2
S1130A40AF9320917E0230917F02409180025091B9
S1130A50810260918202709183028091840290915C
S1130A608502A1E00E94210C20937E0230937F0234
S1130A7040938002509381026093820270938302B8
S1130A808093840290938502AF919F918F917F917F
S1130A906F915F914F913F912F910F900FBE0F90E7
S1130AA01F901895CF93C82F873069F42091E002E6
S1130AB03091E10247E050E061E070E08FE192E0C4
S1130AC00E94690D0CC08A3019F48DE00E94520511
S1130AD0E0ECF0E0808185FFFDCFC093C60080E0AC
S1130AE090E0CF9108956F927F928F929F92AF92F0
S1130AF0BF92CF92DF92EF92FF920F931F93CF9307
S1130B00DF932091DA023091DB02232B09F0DAC063
S1130B108C010F2EFAE88F2EF2E09F2EF02DC0EC00
S1130B20D0E00F2EF6ECCF2ED12CF02D54010F2E49
S1130B30F9E86F2EF2E07F2EF02D88818823ECF700
S1130B40888184FDD2C0888183FDD2C0F601808172
S1130B508D3011F08A3069F48AE0F4018083B801A1
S1130B600E9452058AE892E09093DB028093DA02B5
S1130B70A9C0893039F090EE980F9F3520F0803A63
S1130B80B8F001C080E2F9ED8F16F2E09F0629F477
S1130B90B80187E00E945205D0CF74019FEFE91A93
S1130BA0F90AF4018083B8010E9452054701C5CFB8
S1130BB08231D1F130F4833009F49DC08830E9F0FA
S1130BC0BCCF873129F08F37C1F0853179F0B5CFAB
S1130BD0FAE88F16F2E09F0609F008F4AECFF401AC
S1130BE031978081803209F052C0A7CF8AE88816F5
S1130BF082E0980609F098F5A0CF9AE8891692E069
S1130C00990609F008F499CFB80188E00E945205CA
S1130C10B80180E20E945205B80188E00E945205A2
S1130C20E1E08E1A910889CFB8018DE00E94520547
S1130C30FAE88F16F2E09F0609F008F47ECF0F2E33
S1130C40FAE8EF2EF2E0FF2EF02DB801F7018191C2
S1130C507F010E9452058E149F04B9F76ECFB8012C
S1130C6088E00E945205B80180E20E945205B80152
S1130C7088E00E945205F1E08F1A91088AE88816EC
S1130C8082E0980661F7F30131964F0156CF740163
S1130C90F1E0EF1AF108B80188E00E945205B801AA
S1130CA080E20E945205B80188E00E945205470183
S1130CB0EA14FB0409F441CFF70182917F018032E9
S1130CC051F73BCFE091DA02F091DB02CF010196BC
S1130CD09093DB028093DA0280818A3021F41092AF
S1130CE0DB021092DA0290E008C08EEF9FEF05C09D
S1130CF08FEF9FEF02C08FEF9FEFDF91CF911F9196
S1130D000F91FF90EF90DF90CF90BF90AF909F90A6
S1130D108F907F906F900895ECEDF2E080E091E089
S1130D2095838483938382839183808383E38093F5
S1130D30C40088E18093C10087E292E00E94B30D71
S1130D4008955058BB27AA270E94B9060C94C107DE
S1130D500E94B30738F00E94BA0720F039F49F3F8D
S1130D6019F426F40C94B0070EF4E095E7FB0C9408
S1130D70AA07E92F0E94D20758F3BA17620773072C
S1130D808407950720F079F4A6F50C94F4070EF483
S1130D90E0950B2EBA2FA02D0B01B90190010C0187
S1130DA0CA01A0011124FF27591B99F0593F50F49F
S1130DB0503E68F11A16F040A22F232F342F4427F7
S1130DC0585FF3CF469537952795A795F0405395EF
S1130DD0C9F77EF41F16BA0B620B730B840BBAF0BF
S1130DE09150A1F0FF0FBB1F661F771F881FC2F72A
S1130DF00EC0BA0F621F731F841F48F4879577953E
S1130E006795B795F7959E3F08F0B0CF9395880FF7
S1130E1008F09927EE0F9795879508950E94860705
S1130E2008F481E008950E941A076894B1110C94A3
S1130E30F50708950E94DA0788F09F5798F0B92FB4
S1130E409927B751B0F0E1F0660F771F881F991FFB
S1130E501AF0BA95C9F714C0B13091F00E94F407A2
S1130E60B1E008950C94F407672F782F8827B85FB2
S1130E7039F0B93FCCF3869577956795B395D9F753
S1130E803EF490958095709561957F4F8F4F9F4F5D
S1130E900895E89409C097FB3EF490958095709569
S1130EA061957F4F8F4F9F4F9923A9F0F92F96E9B2
S1130EB0BB279395F695879577956795B795F11127
S1130EC0F8CFFAF4BB0F11F460FF1BC06F5F7F4FC4
S1130ED08F4F9F4F16C0882311F096E911C07723D6
S1130EE021F09EE8872F762F05C0662371F096E8DF
S1130EF0862F70E060E02AF09A95660F771F881FAE
S1130F00DAF7880F9695879597F90895990F000851
S1130F10550FAA0BE0E8FEEF16161706E807F907C7
S1130F20C0F012161306E407F50798F0621B730B62
S1130F30840B950B39F40A2661F0232B242B252BE3
S1130F4021F408950A2609F4A140A6958FEF811D86
S1130F50811D089597F99F6780E870E060E0089527
S1130F609FEF80EC089500240A94161617061806BD
S1130F700906089500240A94121613061406050699
S1130F800895092E0394000C11F4882352F0BB0F2A
S1130F9040F4BF2B11F460FF04C06F5F7F4F8F4F8D
S1130FA09F4F089557FD9058440F551F59F05F3FC8
S1130FB071F04795880F97FB991F61F09F3F79F077
S1130FC087950895121613061406551FF2CF4695F9
S1130FD0F1DF08C0161617061806991FF1CF86957B
S1130FE07105610508940895E894BB27662777275F
S1130FF0CB0197F908950E94860708F48FEF0895AE
S11310000E9413080C94C1070E94B30738F00E9491
S1131010BA0720F0952311F00C94AA070C94B0079A
S113102011240C94F5070E94D20770F3959FC1F325
S1131030950F50E0551F629FF001729FBB27F00D82
S1131040B11D639FAA27F00DB11DAA1F649F6627D7
S1131050B00DA11D661F829F2227B00DA11D621F26
S1131060739FB00DA11D621F839FA00D611D221FE0
S1131070749F3327A00D611D231F849F600D211DC4
S1131080822F762F6A2F11249F5750409AF0F1F047
S113109088234AF0EE0FFF1FBB1F661F771F881FB0
S11310A091505040A9F79E3F510580F00C94AA0737
S11310B00C94F5075F3FE4F3983ED4F38695779557
S11310C06795B795F795E7959F5FC1F7FE2B880F56
S11310D0911D9695879597F90895A0E1B0E0E3E70F
S11310E0F8E00C94EA0B7C011B016A01FC011782F5
S11310F01682838181FF44C39E012F5F3F4F3901D4
S1131100F7019381F10193FD859193FF81911F0173
S1131110882309F431C3853239F493FD859193FF13
S113112081911F01853239F4B70190E00E942D0DA1
S113113056016501E5CF10E0512C912CFFE1F91522
S1131140D8F08B3279F038F4803279F08332A1F41C
S1131150F92DF0612EC08D3261F0803369F4292DB0
S113116021602DC0392D3260932E892D8460982EF4
S11311702AC0E92DE86015C097FC2DC020ED280F8A
S11311802A3088F496FE06C03AE0139F200D1124FD
S1131190122F19C08AE0589E200D1124522EE92DD9
S11311A0E0629E2E10C08E3231F496FCE5C2F92D19
S11311B0F0649F2E08C08C3621F4292D2068922ECD
S11311C002C0883641F4F10193FD859193FF81912A
S11311D01F018111B3CF9BEB980F933020F4992D0D
S11311E09061805E07C09BE9980F933008F066C158
S11311F0992D9F7E96FF16E09F73992E853619F4DC
S11312009064992E08C0863621F4392F3068932EC5
S113121002C01111115097FE07C01C3350F444242E
S11312204394410E27E00BC0183038F027E017E054
S113123005C027E09CE3492E02C0212F412C560112
S113124084E0A80EB11CF6016081718182819381D2
S1131250042DA3010E943F0C6C01F981FC87F0FF6F
S113126002C0F3FF06C091FC06C092FE06C000E275
S113127005C00DE203C00BE201C000E08C858C7058
S113128019F001115AC29BC297FE10C04C0CFC8588
S1131290F4FF04C08A81813309F44A94141474F568
S11312A028E0241578F588E0482E2CC096FC2AC046
S11312B0812F90E08C159D059CF03CEFC3163FEF09
S11312C0D30674F0892D8068982E0AC0E2E0F0E01D
S11312D0EC0FFD1FE10FF11D8081803319F41150D3
S11312E01111F4CF97FE0EC044244394410E812F74
S11312F090E0C816D9062CF41C1904C04424439465
S113130001C010E097FE06C01C141D0434F4C6018D
S1131310019605C085E090E002C081E090E00111F3
S11313200196112331F0212F30E02F5F3F4F820FC0
S1131330931F252D30E08217930714F4581A01C027
S1131340512C892D897049F4552039F0B70180E278
S113135090E00E942D0D5A94F7CF002329F0B70195
S1131360802F90E00E942D0D93FC09C0552039F088
S1131370B70180E390E00E942D0D5A94F7CF97FEB9
S11313804CC04601D7FE02C0812C912CC60188199D
S11313909909F301E80FF91FFE87ED8796012419D7
S11313A03109388B2F87012F10E011950195110910
S11313B03FEF8316930629F4B7018EE290E00E9472
S11313C02D0DC814D9044CF08F859889881599057A
S11313D024F4ED85FE85818101C080E3F1E08F1A5C
S11313E091082D853E852F5F3F4F3E872D878016C0
S11313F091062CF0B70190E00E942D0DD9CFC814AE
S1131400D90441F49A81963320F4953319F43C8538
S113141034FF81E3B70190E04EC08A81813319F033
S11314209C859F7E9C87B70190E00E942D0D111131
S113143005C094FC18C085E690E017C0B7018EE2A1
S113144090E00E942D0D1E5F82E001E0080FF30181
S1131450E80FF11D8081B70190E00E942D0D802FCF
S11314600113F3CFE6CF85E490E0B7010E942D0D80
S1131470D7FC06C0C114D10441F4EC85E4FF05C0D7
S1131480D194C194D1088DE201C08BE2B70190E000
S11314900E942D0D80E32AE0C216D1042CF08F5F48
S11314A0FAE0CF1AD108F7CFB70190E00E942D0DD2
S11314B0B701C601C0960E942D0D54C1833631F088
S11314C0833779F0833509F056C020C0560132E0E5
S11314D0A30EB11CF6018081898301E010E0630151
S11314E012C05601F2E0AF0EB11CF601C080D180EB
S11314F096FE03C0612F70E002C06FEF7FEFC6015C
S11315000E94220D8C01F92DFF7714C0560122E0B0
S1131510A20EB11CF601C080D18096FE03C0612FDB
S113152070E002C06FEF7FEFC6010E94170D8C01BF
S1131530F92DF0689F2EF3FD1AC0852D90E0081751
S11315401907A8F4B70180E290E00E942D0D5A9487
S1131550F4CFF60197FC859197FE81916F01B70155
S113156090E00E942D0D51105A940150110901155B
S1131570110579F7F7C0843611F0893661F5560103
S113158097FE09C024E0A20EB11CF60160817181AE
S1131590828193810AC0F2E0AF0EB11CF601608132
S11315A07181072E000C880B990BF92DFF769F2E65
S11315B097FF09C090958095709561957F4F8F4FE7
S11315C09F4FF0689F2E2AE030E0A3010E94E30DB4
S11315D0C82EC6183FC0092D853721F40F7E2AE096
S11315E030E01DC0097F8F3691F018F4883559F02A
S11315F0C3C0803719F0883711F0BEC0006104FF02
S113160009C0046007C094FE08C0066006C028E054
S113161030E005C020E130E002C020E132E05601B4
S113162007FF09C084E0A80EB11CF6016081718136
S11316308281938108C0F2E0AF0EB11CF601608193
S1131640718180E090E0A3010E94E30DC82EC618CA
S11316500F77902E96FE0BC0092D0E7FC11650F405
S113166094FE0AC092FC08C0092D0E7E05C0DC2C35
S1131670092D03C0DC2C01C0D12E04FF0DC0FE01D6
S1131680EC0DF11D8081803311F4097E09C002FF45
S113169006C0D394D39404C0802F867809F0D394E1
S11316A003FD11C000FF06C01C2DD51480F4150DD8
S11316B01D190DC0D51458F4B70180E290E00E94C2
S11316C02D0DD394F7CFD51410F45D1801C0512C0F
S11316D004FF10C0B70180E390E00E942D0D02FFCB
S11316E017C001FD03C088E790E002C088E590E0E0
S11316F0B7010CC0802F867859F001FF02C08BE23D
S113170001C080E207FD8DE2B70190E00E942D0D3B
S1131710C11638F4B70180E390E00E942D0D1150FA
S1131720F7CFCA94F301EC0DF11D8081B70190E06D
S11317300E942D0DC110F5CF15C0F4E0F51560F52C
S113174084E0581A93FE1FC0011127C02C8523FF83
S11317502AC008E610E0392D3071932EF8018491E7
S1131760811124C0552009F4E4CCB70180E290E053
S11317700E942D0D5A94F6CFF7018681978126C0D9
S11317808FEF9FEF23C0B70180E290E00E942D0D00
S11317905A945110F8CFD8CF512CB701802F90E034
S11317A00E942D0DD3CF0CE610E0D5CF91108052BE
S11317B0B70190E00E942D0D0F5F1F4FCFCF23E0A4
S11317C0251510F483E0BDCF512CC0CF6096E2E123
S11317D00C94060C2F923F924F925F926F927F92DD
S11317E08F929F92AF92BF92CF92DF92EF92FF922D
S11317F00F931F93CF93DF93CDB7DEB7CA1BDB0BD9
S11318000FB6F894DEBF0FBECDBF09942A8839887D
S113181048885F846E847D848C849B84AA84B98484
S1131820C884DF80EE80FD800C811B81AA81B98190
S1131830CE0FD11D0FB6F894DEBF0FBECDBFED01A4
S113184008950024A7FD00942A0F301D401D501D4B
S1131850601D701D801D901D08952A193B094C09B7
S11318605D096E097F09800B910B08952A153B05CC
S11318704C055D056E057F058007910708952830A6
S113188008F027E03327DA01990F311D87FD9160B5
S113189000966105710539F432602E5F3D9330E3A3
S11318A02A95E1F708959F3F30F08038710561056E
S11318B009F03C5F3C5F3D93913008F08068911DD6
S11318C0DF93CF931F930F93FF92EF92192F987F7B
S11318D09695E92F96959695E90FFF27E653FF4FC6
S11318E099273327EE24FF24A701E70105900894E4
S11318F0079428F4360FE71EF81E491F511D660F82
S1131900771F881F991F0694A1F70590079428F460
S1131910E70EF81E491F561FC11D770F881F991F18
S1131920661F0694A1F70590079428F4F80E491F42
S1131930561FC71FD11D880F991F661F771F069456
S1131940A1F70590079420F4490F561FC71FD81F0D
S1131950990F661F771F881F0694A9F78491109525
S1131960177041F0D695C79557954795F794E79426
S11319701A95C1F7E0E7F0E0689415901591359158
S11319806591959105907FE27395E118F10A430BF7
S1131990560BC90BD009C0F7E10CF11E431F561FAB
S11319A0C91FD01D7EF4703311F48A95E6CFE894F4
S11319B0015030F0080F0AF40027021708F4202F12
S11319C02395022F7A3328F079E37D932A95E9F75A
S11319D010C07D932A9589F6069497956795379557
S11319E017951794E118F10A430B560BC90BD0094C
S11319F098F023957E9173957A3308F070E37C9385
S1131A002013B8F77E9170617D9330F0839571E374
S1131A107D9370E32A95E1F71124EF90FF900F91E5
S1131A201F91CF91DF91992787FD90950895FC012F
S1131A300590615070400110D8F7809590958E0FF5
S1131A409F1F0895FC016150704001900110D8F768
S1131A50809590958E0F9F1F08950F931F93CF939A
S1131A60DF93FB01238121FD03C08FEF9FEF2CC087
S1131A7022FF16C0468157812481358142175307BE
S1131A8044F4A081B1819D012F5F3F4F31832083B6
S1131A908C93268137812F5F3F4F3783268314C071
S1131AA08B01EC01FB010084F185E02D0995892B64
S1131AB0E1F6D80116968D919C9117970196179689
S1131AC09C938E931697CE01DF91CF911F910F9126
S1131AD00895A0E0B0E0EFE6FDE00C94F00B5B01AC
S1131AE04A017901D90113962C9121FF1DC0C0E050
S1131AF0D0E0C815D905D9F08C016C01CA0CDB1CE7
S1131B00C8010C151D0571F00F5F1F4FD701189602
S1131B10ED91FC911997B701DC018C910995892B02
S1131B2079F305C02196E5CF80E090E001C0CE01B5
S1131B30CDB7DEB7ECE00C940C0CA0E0B0E0E3EA27
S1131B40FDE00C94FA0BAE014B5F5F4FFA0161911B
S1131B507191AF018091DE029091DF020E946D08C5
S1131B60E2E00C94160C0F931F93CF93DF93E09154
S1131B70DE02F091DF02238121FF1BC08C01D0E043
S1131B80C0E0F80181918F016091DE027091DF0263
S1131B90DB011896ED91FC911997882331F0099592
S1131BA0892B79F3DFEFCFEFECCF8AE00995892B0E
S1131BB019F08FEF9FEF02C08D2F9C2FDF91CF91F3
S1131BC01F910F910895FA01AA27283051F120316D
S1131BD081F1E8946F936E7F6E5F7F4F8F4F9F4FBD
S1131BE0AF4FB1E03ED0B4E03CD0670F781F891FFF
S1131BF09A1FA11D680F791F8A1F911DA11D6A0FCD
S1131C00711D811D911DA11D20D009F468943F917F
S1131C102AE0269F11243019305D3193DEF6CF017E
S1131C200895462F4770405D4193B3E00FD0C9F744
S1131C30F6CF462F4F70405D4A3318F0495D31FDB1
S1131C404052419302D0A9F7EACFB4E0A695979504
S1131C50879577956795BA95C9F7009761057105DA
S1131C6008959B01AC010A2E069457954795379524
S1131C702795BA95C9F7620F731F841F951FA01D7E
S1091C800895F894FFCF63
S1131C8600000003000000005205730500005072B6
S1131C966F62696E672073656E736F722E2E2E00E7
S1131CA653656E736F72206E6F7420666F756E6403
S1131CB6210053656E736F7220666F756E64210022
S1131CC64465766963652049443A20307825580A84
S1131CD6002F2A2045756C657220416E676C65730A
S1131CE6202A2F0A48656164696E673A2025660AC8
S1131CF6526F6C6C3A2025660A50697463683A2000
S1131D0625660A416E6720583A2025660A416E67A1
S1131D1620593A2025660A416E67205A3A202566DC
S1131D260A0A00424E4F204F50523A203078255826
S1131D360A002F2A2043616C6962726174696F6EAE
S1131D4620537461747573202A2F0A4D61672053DA
S1131D5674617475733A20307825580A4163632098
S1131D665374617475733A20307825580A4779722A
S1131D76205374617475733A20307825580A537960
S1131D8673205374617475733A20307825580A0A9F
S1131D960052657374617274696E672E2E2E002A62
S10F1DA672696E672A0A001B5B324A0057
S9030000FC
