S00E0000526564426F742E73726563D6
S11300000C943B000C9458000C9458000C94580029
S11300100C9458000C9458000C9458000C945602FC
S11300200C9461020C9458000C9458000C94F60241
S11300300C9458000C9458000C9440020C944B02FD
S11300400C9458000C9458000C9458000C945800CC
S11300500C9458000C9458000C9458000C945800BC
S11300600C9458000C945800A500B200BB00C800C2
S1130070D500DE00EB0011241FBECFEFD8E0DEBFB9
S1130080CDBF11E0A0E0B1E0E8EEFDE002C00590D4
S11300900D92AC31B107D9F721E0ACE1B1E001C078
S11300A01D92A63AB207E1F70E9462010C94F2068F
S11300B00C940000EAE7F0E083E0808380818068AC
S11300C080830895806480937C000895EAE7F0E0DB
S11300D0808180648083808186FDFDCF809178005B
S11300E09091790008950E946600BC0180E090E040
S11300F00E94210520E030E040EA5BE30E94D8053D
S113010008954F925F926F927F928F929F92AF92D7
S1130110BF92CF92DF92EF92FF92C0902001D090D5
S11301202101E0902201F090230180914501E82F04
S1130130E7708E2F90E0FC013197E730F10508F06D
S113014052C0EC5CFF4F0C94450680E090E0A0E0C8
S1130150B0E48093200190932101A0932201B093F5
S1130160230141C01092200110922101109222011A
S11301701092230138C080E090E0A0E8BFE38093B0
S1130180200190932101A0932201B09323012BC05D
S113019080E090E0A0E0B0EC8093200190932101F6
S11301A0A0932201B09323011EC01092200110924B
S11301B02101109222011092230115C080E090E0E9
S11301C0A0E8BFEB8093200190932101A09322012A
S11301D0B093230108C010922001109221011092C3
S11301E02201109223018090200190902101A0907F
S11301F02201B090230120911C0130911D014091F6
S11302001E0150911F01C501B4010E9481042B01FC
S11302103C0160931C0170931D0180931E01909317
S11302201F01A7019601C501B4010E94800420E0CA
S113023030E0A9010E94D8056B017C0120E030E088
S113024040E05FE3C501B4010E94D8059B01AC0105
S1130250C701B6010E9481046B017C0120E030E0FB
S1130260A901C301B2010E94D8059B01AC01C701D9
S1130270B6010E9481046B017C019B01AC016AE917
S113028079E989E79FE30E9480044B015C0120E047
S113029030E040E85FE3C701B6010E948104A50194
S11302A094010E949301FF90EF90DF90CF90BF9054
S11302B0AF909F908F907F906F905F904F90089534
S11302C0259A089578940E94E7020E9460010E9492
S11302D079010E946F040E945A008EE091E00E940E
S11302E08B0681E00E942B020E946C020E94810016
S11302F0FBCF279A8AB1846F8AB923E024BD8BE0AF
S113030085BD99EF97BD18BC86E080936E0020935D
S1130310B0002CE02093B1009093B3001092B4008D
S11303208093700008958F929F92AF92BF92CF9264
S1130330DF92EF92FF924B015C0169017A0120E0A8
S113034030E040E85FE30E94D305882364F087B57A
S11303508F5F88BD0F2E812C912CF0E8AF2EFFE328
S1130360BF2EF02D25C020E030E0A901C501B40165
S11303700E94ED0418162CF018BC812C912C540109
S113038017C067B570E06F5F7F4F072E000C880BB6
S1130390990B0E942305A50194010E94D80520E031
S11303A030E040E85FE30E9480040E94F20468BDEC
S11303B020E030E040E85FE3C701B6010E94D305C6
S11303C0882374F08091B3008F5F8093B4000F2E64
S11303D0C12CD12CF0E8EF2EFFE3FF2EF02D28C026
S11303E020E030E0A901C701B6010E94ED0418160F
S11303F034F01092B400C12CD12C760119C0609154
S1130400B30070E06F5F7F4F072E000C880B990BD1
S11304100E942305A70196010E94D80520E030E040
S113042040E85FE30E9480040E94F2046093B400F9
S1130430E4E2F1E080829182A282B382C482D58216
S1130440E682F782FF90EF90DF90CF90BF90AF905D
S11304509F908F900895813021F068F0823031F0C0
S113046008955A985C9A289A5F9808955A9A5C98C5
S11304705F9A289808958BB18B768BB92898089544
S11304801F920F920FB60F9211245D9A0F900FBE18
S11304900F901F9018951F920F920FB60F92112470
S11304A05D980F900FBE0F901F9018951F920F929A
S11304B00FB60F9211245E9A0F900FBE0F901F90EB
S11304C018951F920F920FB60F9211245E980F90F9
S11304D00FBE0F901F901895CF92DF92EF92FF926C
S11304E0CF93DF9380E00E9462000E947300C9E30F
S11304F0D1E0688379838A839B8381E00E946200D0
S11305000E9473006C837D838E839F8382E00E94AC
S113051062000E9473006B017C01688779878A8777
S11305209B878DE0FE01ACE2B1E001900D928A95CB
S1130530E1F726E636E646E950E4688179818A8166
S11305409B810E94D305882334F0E5E4F1E08081A7
S11305508460808305C0E5E4F1E080818B7F808343
S113056026E636E646E950E460913D0170913E018D
S113057080913F01909140010E94D305882334F07B
S1130580E5E4F1E080818260808305C0E5E4F1E088
S113059080818D7F808326E636E646E950E4C701F4
S11305A0B6010E94D305882334F0E5E4F1E08081AC
S11305B08160808305C0E5E4F1E080818E7F8083E3
S11305C0DF91CF91FF90EF90DF90CF90089510923C
S11305D080008BE08093810089EF90E09093890004
S11305E08093880082E080936F0008951F920F9299
S11305F00FB60F9211242F933F934F935F936F93F2
S11306007F938F939F93AF9320914601309147013D
S1130610409148015091490160914A0170914B0108
S113062080914C0190914D01A1E00E944B062093D2
S11306304601309347014093480150934901609328
S11306404A0170934B0180934C0190934D01AF91FB
S11306509F918F917F916F915F914F913F912F91D6
S11306600F900FBE0F901F901895CF93C82F87300F
S113067069F42091A4013091A50147E050E061E0C4
S113068070E083E191E00E9457060CC08A3019F4AF
S11306908DE00E943503E0ECF0E0808185FFFDCF22
S11306A0C093C60080E090E0CF9108956F927F924E
S11306B08F929F92AF92BF92CF92DF92EF92FF926E
S11306C00F931F93CF93DF9320919E0130919F014D
S11306D0232B09F0DAC08C010F2EFEE48F2EF1E0FB
S11306E09F2EF02DC0ECD0E00F2EF6ECCF2ED12CA7
S11306F0F02D54010F2EFDE46F2EF1E07F2EF02D2E
S113070088818823ECF7888184FDD2C0888183FDA9
S1130710D2C0F60180818D3011F08A3069F48AE00C
S1130720F4018083B8010E9435038EE491E0909334
S11307309F0180939E01A9C0893039F090EE980FF3
S11307409F3520F0803AB8F001C080E2FDE98F16B1
S1130750F1E09F0629F4B80187E00E943503D0CF69
S113076074019FEFE91AF90AF4018083B8010E9429
S113077035034701C5CF8231D1F130F4833009F418
S11307809DC08830E9F0BCCF873129F08F37C1F0A4
S1130790853179F0B5CFFEE48F16F1E09F0609F0BC
S11307A008F4AECFF40131978081803209F052C051
S11307B0A7CF8EE4881681E0980609F098F5A0CFBB
S11307C09EE4891691E0990609F008F499CFB801DE
S11307D088E00E943503B80180E20E943503B80125
S11307E088E00E943503E1E08E1A910889CFB801B0
S11307F08DE00E943503FEE48F16F1E09F0609F0B8
S113080008F47ECF0F2EFEE4EF2EF1E0FF2EF02D44
S1130810B801F70181917F010E9435038E149F0472
S1130820B9F76ECFB80188E00E943503B80180E2C1
S11308300E943503B80188E00E943503F1E08F1A65
S113084091088EE4881681E0980661F7F3013196E9
S11308504F0156CF7401F1E0EF1AF108B80188E0B6
S11308600E943503B80180E20E943503B80188E094
S11308700E9435034701EA14FB0409F441CFF70150
S113088082917F01803251F73BCFE0919E01F0913C
S11308909F01CF01019690939F0180939E018081D7
S11308A08A3021F410929F0110929E0190E008C0BA
S11308B08EEF9FEF05C08FEF9FEF02C08FEF9FEF8A
S11308C0DF91CF911F910F91FF90EF90DF90CF9028
S11308D0BF90AF909F908F907F906F900895E0EAC3
S11308E0F1E080E091E09583848393838283918314
S11308F0808383E38093C40088E18093C1000895DA
S11309005058BB27AA270E9498040C9499050E946A
S11309108B0538F00E94920520F039F49F3F19F4BA
S113092026F40C9488050EF4E095E7FB0C948205FC
S1130930E92F0E94AA0558F3BA17620773078407C0
S1130940950720F079F4A6F50C94CC050EF4E09507
S11309500B2EBA2FA02D0B01B90190010C01CA0175
S1130960A0011124FF27591B99F0593F50F4503E20
S113097068F11A16F040A22F232F342F4427585F12
S1130980F3CF469537952795A795F0405395C9F72A
S11309907EF41F16BA0B620B730B840BBAF09150E2
S11309A0A1F0FF0FBB1F661F771F881FC2F70EC081
S11309B0BA0F621F731F841F48F487957795679554
S11309C0B795F7959E3F08F0B0CF9395880F08F040
S11309D09927EE0F9795879508950E945E0508F470
S11309E081E008950E94B20588F09F5798F0B92FCE
S11309F09927B751B0F0E1F0660F771F881F991F50
S1130A001AF0BA95C9F714C0B13091F00E94CC0520
S1130A10B1E008950C94CC05672F782F8827B85F30
S1130A2039F0B93FCCF3869577956795B395D9F7A7
S1130A303EF490958095709561957F4F8F4F9F4FB1
S1130A400895E89409C097FB3EF4909580957095BD
S1130A5061957F4F8F4F9F4F9923A9F0F92F96E906
S1130A60BB279395F695879577956795B795F1117B
S1130A70F8CFFAF4BB0F11F460FF1BC06F5F7F4F18
S1130A808F4F9F4F16C0882311F096E911C077232A
S1130A9021F09EE8872F762F05C0662371F096E833
S1130AA0862F70E060E02AF09A95660F771F881F02
S1130AB0DAF7880F9695879597F90895990F0008A6
S1130AC0550FAA0BE0E8FEEF16161706E807F9071C
S1130AD0C0F012161306E407F50798F0621B730BB7
S1130AE0840B950B39F40A2661F0232B242B252B38
S1130AF021F408950A2609F4A140A6958FEF811DDB
S1130B00811D089597F99F6780E870E060E008957B
S1130B109FEF80EC089500240A9416161706180611
S1130B200906089500240A941216130614060506ED
S1130B300895092E0394000C11F4882352F0BB0F7E
S1130B4040F4BF2B11F460FF04C06F5F7F4F8F4FE1
S1130B509F4F089557FD9058440F551F59F05F3F1C
S1130B6071F04795880F97FB991F61F09F3F79F0CB
S1130B7087950895121613061406551FF2CF46954D
S1130B80F1DF08C0161617061806991FF1CF8695CF
S1130B907105610508940895E894BB2766277727B3
S1130BA0CB0197F908950E945E0508F48FEF08952C
S1130BB00E94EB050C9499050E948B0538F00E9465
S1130BC0920520F0952311F00C9482050C9488056D
S1130BD011240C94CD050E94AA0570F3959FC1F3CE
S1130BE0950F50E0551F629FF001729FBB27F00DD7
S1130BF0B11D639FAA27F00DB11DAA1F649F66272C
S1130C00B00DA11D661F829F2227B00DA11D621F7A
S1130C10739FB00DA11D621F839FA00D611D221F34
S1130C20749F3327A00D611D231F849F600D211D18
S1130C30822F762F6A2F11249F5750409AF0F1F09B
S1130C4088234AF0EE0FFF1FBB1F661F771F881F04
S1130C5091505040A9F79E3F510580F00C948205B5
S1130C600C94CD055F3FE4F3983ED4F386957795D5
S1130C706795B795F795E7959F5FC1F7FE2B880FAA
S1130C80911D9695879597F90895EE0FFF1F05908E
S1130C90F491E02D09940024A7FD00942A0F301D3F
S1130CA0401D501D601D701D801D901D0895A0E005
S1130CB0B0E0EDE5F6E00C94C1065B014A01790170
S1130CC0D90113962C9121FF1DC0C0E0D0E0C815B6
S1130CD0D905D9F08C016C01CA0CDB1CC8010C15B8
S1130CE01D0571F00F5F1F4FD7011896ED91FC9110
S1130CF01997B701DC018C910995892B79F305C00B
S1130D002196E5CF80E090E001C0CE01CDB7DEB7FB
S1130D10ECE00C94DD060F931F93CF93DF93E091E7
S1130D20A201F091A301238121FF1BC08C01D0E01B
S1130D30C0E0F80181918F016091A2017091A3013B
S1130D40DB011896ED91FC911997882331F00995F0
S1130D50892B79F3DFEFCFEFECCF8AE00995892B6C
S1130D6019F08FEF9FEF02C08D2F9C2FDF91CF9151
S1130D701F910F9108952F923F924F925F926F921D
S1130D807F928F929F92AF92BF92CF92DF92EF9217
S1130D90FF920F931F93CF93DF93CDB7DEB7CA1B98
S1130DA0DB0B0FB6F894DEBF0FBECDBF09942A88C3
S1130DB0398848885F846E847D848C849B84AA846B
S1130DC0B984C884DF80EE80FD800C811B81AA81F8
S1130DD0B981CE0FD11D0FB6F894DEBF0FBECDBFC3
S10B0DE0ED010895F894FFCF22
S1130DE800000003000000003503560300001B5BED
S10F0DF8324A002A72696E672A0A000061
S9030000FC
